:020000040800F2
:10000000C00400209D010008EB160008AB12000898
:10001000E9160008CD020008FD1D000800000000E0
:10002000000000000000000000000000111A00089D
:10003000CF02000800000000ED160008131A0008A7
:10004000B7010008B7010008B7010008B7010008B0
:10005000B7010008B7010008B7010008B7010008A0
:10006000B7010008B7010008B7010008B701000890
:10007000B7010008B7010008B7010008B701000880
:10008000B7010008B7010008B7010008B701000870
:10009000B7010008B7010008B7010008B701000860
:1000A000B7010008B7010008B7010008B701000850
:1000B000B7010008B7010008B7010008B701000840
:1000C000B7010008B7010008B7010008B701000830
:1000D000B7010008B7010008B7010008B701000820
:1000E000B7010008B7010008B7010008B701000810
:1000F000B7010008B7010008B7010008B701000800
:10010000B7010008B7010008B7010008B7010008EF
:10011000B7010008B7010008B7010008B7010008DF
:10012000B7010008B7010008B7010008B7010008CF
:10013000B7010008B7010008B7010008B7010008BF
:10014000B7010008B7010008B7010008B7010008AF
:10015000B7010008B7010008B7010008B70100089F
:10016000B7010008B7010008B7010008B70100088F
:10017000B7010008B7010008B7010008000000003F
:10018000B7010008B7010008DFF80CD000F08CF8C8
:10019000004800473D1E0008C00400200648804774
:1001A00006480047FEE7FEE7FEE7FEE7FEE7FEE75C
:1001B000FEE7FEE7FEE7FEE7991A0008890100085E
:1001C0002DE9F05F0546002092469B46884606468C
:1001D000814640241BE0284641464746224600F01F
:1001E00053F853465A46C01A914110D31146184647
:1001F000224600F03AF82D1A67EB01084F462246D6
:100200000120002100F031F817EB00094E41201EBB
:10021000A4F10104DFDC484631462A464346BDE8E6
:10022000F09F40EA01039B0703D009E008C9121FB1
:1002300008C0042AFAD203E011F8013B00F8013BA0
:10024000521EF9D27047D2B201E000F8012B491ECC
:10025000FBD270470022F6E710B513460A46044663
:100260001946FFF7F0FF204610BD202A04DB203A94
:1002700000FA02F1002070479140C2F1200320FAF9
:1002800003F3194390407047202A04DB203A21FAF7
:1002900002F00021704721FA02F3D040C2F120029F
:1002A0009140084319467047064C074D06E0E06848
:1002B00040F0010394E8070098471034AC42F6D3AD
:1002C000FFF766FF041F0008241F0008FEE77047C1
:1002D0007047000070B5044600F0E6F80546601C63
:1002E00002D004480078044400F0DEF8401BA0422D
:1002F000FAD370BD000000202DE9F84FDFF87CB183
:1003000000224FF001084FF0030A4FF00F090BF1E4
:10031000040E00BF0B6808FA02F42340A3426ED11A
:100320004D68022D01D0122D0ED1D50800EB850CA1
:10033000DCF820505607F70E09FA07F6B5430E69A8
:10034000BE402E43CCF82060066855000F790AFAAB
:1003500005FC07F0030726EA0C06AF4037430760A9
:100360004E68012E05D0022E03D0112E01D0122E80
:100370000ED18668CF6826EA0C06AF403743876007
:100380004668A6430C79C4F3001494403443446097
:10039000C6688C6826EA0C06AC403443C4604C68DE
:1003A000E40065D5364C256845F480452560246811
:1003B00022F0030504F480440094324C2E19D6F840
:1003C000084895072F0F09FA07F5AC432E4DA842B0
:1003D00001D1002524E02D4DA84201D101251FE0C7
:1003E0002B4DA84201D102251AE02A4DA84201D185
:1003F000032515E0284DA84202D1042510E037E07E
:10040000264DA84201D105250AE0254DA84201D17B
:10041000062505E0234DA84201D1072500E0082567
:10042000BD402543C6F80858DBF800405D464E68DD
:100430009C43F60300D51C432C60DEF80040754653
:100440004E689C43B60300D51C432C600B4D083509
:100450002C684E689C43F60200D51C432C60074D67
:100460000C352C684E689C43B60200D51C432C60AA
:10047000521C102AFFF44EAFBDE8F88F003C01403B
:1004800044380240003001400000024000040240B5
:1004900000080240000C024000100240001402401C
:1004A00000180240001C02400148806870470000AC
:1004B0000000002070B504001BD094F83D0000251A
:1004C00020B984F83C50204600F0E0FA242084F85B
:1004D0003D002068016821F00101016000F02EFC60
:1004E0004D4A6168914201D84C4900E04C4988422C
:1004F00001D2012070BD4B492368B0FBF1F15E6869
:1005000026F03F060E435E606368934206D94FF4BF
:10051000967359434FF47A73B1FBF3F12368491C86
:100520001E6A26F03F06314319626168914210D875
:100530004900401EB0FBF1F2521CC2F30B02042A28
:1005400001D2042022E0B0FBF1F0401CC0F30B000C
:100550001CE0A368F3B301EBC10202EB0116421EDB
:10056000B2FBF6F2521C42F48042120549D093B31A
:1005700001EBC10202EB0111401EB0FBF1F0401C87
:10058000C0F30B0040F4804040F400402168CA6989
:100590004CF6FF739A431043C861D4E9070108433E
:1005A00021680A6822F0C00210430860D4E9030100
:1005B00001432068826848F2FF339A431143816007
:1005C000D4E9050108432168CA6822F0FF021043FC
:1005D000C86001E00EE016E02068016841F001010A
:1005E00001602564202084F83D00256384F83E5096
:1005F000002070BD01EB4106421EB2FBF6F2521C18
:10060000B3E70120C2E701EB4101401EB0FBF1F06E
:10061000401CC0F30B00B7E7A086010080841E00D9
:1006200000093D0040420F002DE9FF4F81B089468F
:100630000446FFF739FF054694F83D004FF00108E6
:1006400020287AD1192301224B492046009500F039
:1006500019FF002871D194F83C0001286DD00120C9
:1006600084F83C0020680168C90703D1016841F0A3
:10067000010101602068016821F40061016024200B
:1006800084F83D00002626643C48E0624FF0011BE0
:1006900020272068016841F48071016000950022E4
:1006A00059462046049B00F0EDFE002856D12168F3
:1006B00009F0FE000861FFF7F7FE2168054648696A
:1006C0004969C0F34000C1F380214FF0A00A0FE058
:1006D000FFF7EAFE411B0498814200D808B984F86C
:1006E0003DA0216848694969C0F34000C1F38021F9
:1006F00094F83D20A02A02D008B90029E8D084F857
:100700003D7020684169C943890717D4016841F4E5
:10071000007101602068416980691923012216492E
:100720002046009500F0AEFEC0B984F83D7084F814
:100730003C60002005B0BDE8F08F1BE0016841F48B
:100740000071016021686FF4806048611923012203
:1007500009492046009500F095FE08B10120E9E71F
:10076000039808F10108804593D384F83D7084F81C
:100770003C60F3E70220DDE7020010000000FFFF0D
:100780002DE9F84F1F4690468A460446DDF828902A
:10079000FFF78AFE054694F83D00202875D11923FD
:1007A00001226C492046009500F06CFE0028F5D12E
:1007B00094F83C00012868D0012084F83C002068AF
:1007C0000168C90703D1016841F001010160206897
:1007D000016821F400610160222084F83D001020AE
:1007E00084F83E0000262664C4F824806785608D66
:1007F00020855948E0622B464A465146204600F083
:100800006CFD002878D1208D544F68B1012814D098
:1008100002282068016816D041F4806101602068D8
:1008200041698069009087E0206841698169009191
:10083000016841F4007101607EE02068016821F4E4
:1008400080610160F0E721F4806101602068016847
:1008500041F40061E2E7032848D801280AD00228C1
:1008600014D04B46002239462046009500F00AFE7F
:10087000D8BB27E02A464946204600F082FEA0BBAE
:1008800020680069616A08704DE061E04B46002213
:1008900039462046009500F0F5FD30BB2068016820
:1008A00041F40071016020680069616A0870606A43
:1008B000401C6062218D491E2185618D491E618524
:1008C00021682EE02068016821F4806101602068C1
:1008D0000069616A0870606A401C6062208D401E79
:1008E0002085608D401E6085D0E705E02A46494698
:1008F000204600F046FE10B10120BDE8F88F2068C8
:100900000069616A0870606A401C6062218D491E3E
:100910002185618D491E618521684A69D24352074C
:100920000AD409690170606A401C6062208D401E13
:100930002085608D401E6085208D00288BD1202071
:1009400084F83D0084F83E6084F83C600020D4E7E1
:100950000220D2E7020010000000FFFF04000100A7
:100960002DE9F84F1F4690468A460446DDF8289048
:10097000FFF79AFD054694F83D0020287FD1192302
:10098000012240492046009500F07CFD002876D1E8
:1009900094F83C00012872D0012084F83C002068C3
:1009A0000168C90703D1016841F0010101602068B5
:1009B000016821F400610160212084F83D001020CD
:1009C00084F83E0000262664C4F824806785608D84
:1009D00020852D48E0622B464A465146204600F0CD
:1009E000E7FC90B9206841698069009036E02A46AA
:1009F0004946204600F0F8FD50B1206C042804D18F
:100A00002068016841F4007101600120BDE8F88FA1
:100A1000606A216800780861606A401C6062618DCC
:100A2000491E6185218D491E89B22185226853693D
:100A3000DB435B070BD451B100781061606A401C46
:100A40006062608D401E6085208D401E20852A4694
:100A50004946204600F0F0FC0028CED1208D002829
:100A6000C5D154F83D0B016841F4007101602020AC
:100A700004F81E09E67766770020C7E7FFE7022043
:100A8000C4E70000020010000000FFFF10B586B0B0
:100A9000044614216846FFF7DDFB134920688842AD
:100AA00020D11248016841F00201016000686946E6
:100AB00000F002000590C02000901220019001205B
:100AC000029003200390042004900948FFF714FCCF
:100AD00006481030016841F400110160006800F41C
:100AE0000010059006B010BD0054004030380240A0
:100AF0000004024002488168027811448160704716
:100B0000000000200B4810B5016841F4007101603D
:100B1000016841F480610160016841F48071016005
:100B2000032000F061F8002000F006F800F024F83F
:100B3000002010BD003C024070B50D4D04464FF43E
:100B40007A712878B1FBF0F00A490968B1FBF0F03E
:100B500000F0D2FA48B9102C07D200222146501ECC
:100B600000F022F800206C6070BD012070BD000014
:100B7000000000200C0000200A4808B5016841F47C
:100B800080410160006800F4804000900548001F2B
:100B9000016841F080510160006800F080500090D1
:100BA00008BD000044380240F0B40E4B1B680C46F0
:100BB000C3F30223C3F10705042D00D90425191D31
:100BC000072901D2002300E0DB1E012606FA05F109
:100BD000491E214099409E40761E16403143F0BC8C
:100BE00001F00DB90CED00E0064900F007020868BD
:100BF0004FF6FF03184040EA0220034A1043086002
:100C0000704700000CED00E00000FA052DE9F04708
:100C10000E46050065D0DFF81481D8F80000F7B261
:100C200000F00F00B04207D288F80070D8F800003A
:100C300000F00F00B04254D128683D4C810712D516
:100C4000400703D5206840F4E05020602878000772
:100C500003D5206840F4604020602068A96820F037
:100C6000F000084320602878C0072DD0304968681C
:100C70000839012812D0022813D0032811D009689E
:100C8000890700292DDA216821F003010143216041
:100C9000FFF70AFC814641F2883A0EE009688903B1
:100CA000EFE709688901ECE7FFF7FEFBA0EB09011C
:100CB000514502D90320BDE8F0872068696800F03B
:100CC0000C00B0EB810FEFD1D8F80010404601F0D6
:100CD0000F01B14207D90770006800F00F00B04261
:100CE00001D00120E7E72878400705D52068E968AA
:100CF00020F4E050084320602878000706D52068DB
:100D0000296920F4604040EAC100206000F036F814
:100D10002168084AC1F30311515CC84006490860C4
:100D20000020FFF709FF0020C5E70000003C02405B
:100D300008380240EC1E00080C0000200448054959
:100D400000680968044AC1F38221515CC8407047B9
:100D50000C00002008380240FC1E00080448054929
:100D600000680968044AC1F34231515CC8407047C9
:100D70000C00002008380240FC1E0008154810B581
:100D8000006810F00C02144813D04110042A0FD050
:100D9000082A0ED10F4C241F2268236802F03F025C
:100DA0005B0207D52068C0F38810A0FB010106E0B4
:100DB000084610BD2168C1F38811A1FB0001002382
:100DC000FFF7FEF92168C1F30141491C4900B0FB5E
:100DD000F1F010BD083802400024F4002DE9F84F6E
:100DE000050076D02878DFF8F8B2BE4CC00749D0AD
:100DF000DBF800105846C1F38101012908D00068D2
:100E0000C0F3810002280AD1201D0068400206D5E7
:100E10002068800336D568680028E2D032E0686830
:100E2000B0F5803F10D0B0F5A02F206810D020F48E
:100E300080302060206820F4802020606868A0B1A5
:100E4000FFF732FB06460CE0206840F48030F4E700
:100E500040F480202060F7E7FFF726FB801B642822
:100E600073D820688003F7D50CE0FFF71DFB06461A
:100E700005E000BFFFF718FB801B6428F0D820684E
:100E80008003F7D42878DFF8608280074FF00009EC
:100E90003ED5DBF80010584611F00C0F09D0006861
:100EA000C0F3810002280BD18D48001F006840026A
:100EB00006D42068800715D5E868012809D111E01B
:100EC000E868B8B10120C8F80000FFF7EDFA06465F
:100ED00005E002E1FFF7E8FA801B0228C0D820688D
:100EE0008007F7D52068296920F0F80040EAC100A2
:100EF00020600DE0C8F80090FFF7D6FA064604E03F
:100F0000FFF7D2FA801B02281FD820688007F7D489
:100F10002878000722D5724E744869696C3671B121
:100F200001210160FFF7C0FA074604E0FFF7BCFAB1
:100F3000C01B022809D830688007F7D50EE0C0F83A
:100F40000090FFF7B1FA074605E083E0FFF7ACFA3F
:100F5000C01B02287ED830688007F7D42878400765
:100F600068D5DFF87CA100270AF1380ADAF800001A
:100F7000C0000BD4DAF8001041F08051CAF800101C
:100F8000DAF80000012700F080500090584E3068D9
:100F9000C00510D4306840F480703060FFF784FAE8
:100FA000009005E0FFF780FA0099401A022851D816
:100FB0003068C005F6D54A4EA868683601280FD0BB
:100FC0000528306810D020F001003060306820F033
:100FD00004003060A868B8B1FFF766FA00900FE02F
:100FE000306840F00100F4E740F004003060F7E7BB
:100FF000FFF75AFA0099411A41F28830814264D8C9
:1010000030688007F4D50EE0FFF74EFA009007E055
:10101000FFF74AFA0099411A41F28830814254D8C8
:1010200030688007F4D42FB1DAF8001021F0805135
:10103000CAF80010A869C0B3DBF80010C1F3810141
:1010400002294AD00228484607D0C8F86000FFF7B6
:101050002BFA00E039E005463AE04746C8F8600060
:10106000FFF722FA064604E0FFF71EFA801B02286B
:101070002BD820688001F7D4D5E907010843A96A75
:101080001C4A490802EB01416A6A41EA821108439D
:1010900095F82C1040EA01611148001F0160012001
:1010A0003866FFF701FA054605E014E0FFF7FCF9A2
:1010B000401B022809D820688001F7D50BE000BF4B
:1010C000FFF7F2F9401B022802D90320BDE8F88F90
:1010D00020688001F4D40020F8E70120F6E7000042
:1010E000083802400038024000004742800E474264
:1010F000007000400000FFFF10B5401EB0F1807F7F
:1011000001D3012010BD4FF0E02460610F21601772
:1011100000F075FE0020A06107202061002010BDB6
:1011200070B5040004D094F83900002510B106E031
:10113000012070BD84F83850204600F023F82420A8
:1011400084F839002068C16821F40051C16020464C
:1011500000F0CCFC2068016921F490410161206815
:10116000416921F02A0141612068C16841F40051C0
:10117000C160E563202084F8390084F83A0000203B
:1011800070BD000010B586B0044614216846FFF714
:1011900061F814492068884221D11348002102686F
:1011A00042F010020260006800F0100005900E4846
:1011B0001438026842F001020260006800F0010089
:1011C00005904FF4C06000900220CDE9010103209A
:1011D00003900720049069460448FFF78DF806B095
:1011E00010BD0000001001404438024000000240E1
:1011F0002DE9F843044690F839001F4616460D467F
:10120000202850D1A5B19EB194F8380001284AD0C9
:10121000012084F838004FF00008C4F83C802120F9
:1012200084F83900FFF740F9A6848146E68426E079
:101230000120BDE8F883E08C401EE084A0684B46A6
:10124000B0F5805F4FF000024FF08001204600971C
:1012500003D000F0A1FDE8B90DE000F09DFDC8B994
:1012600028882168C0F308004860206908B16D1C17
:1012700005E0AD1C03E0216815F8010B4860E08C27
:101280000028D8D14B46002240212046009700F08C
:1012900083FD08B10320CCE7202084F8390084F8CE
:1012A00038800020C5E70220C3E7FEE701684A69ED
:1012B000D24352050FD46FF480624A61002140F896
:1012C000301F202242738173026942F004020261DE
:1012D000017301207047002070472DE9F84F044644
:1012E000C06A1E4692460D4621680A6842F4806232
:1012F0000A60082807D0012805D010F5803F02D0E9
:10130000206B112804D12068016841F480710160CC
:101310004FF001185346002241462046009600F047
:10132000B1F8F0BB206908F10109B0F5804F0FD08A
:101330000620216800EAD51747F0F000086133461F
:10134000524608F10701204600F0D0F848BB03E000
:10135000E8B240F001001BE02168E8B208613346C2
:1013600052464946204600F0C1F8D0B9206841698C
:1013700081690091016841F4807101605346002247
:1013800041462046009600F07DF850B947F0F10044
:1013900021680861334652464946204600F0A6F8C7
:1013A00000E001E0002800D00120BDE8F88F000037
:1013B000F8B50446C06A1E460D461746082807D0F1
:1013C000012805D010F5803F02D0206B122804D1EF
:1013D0002068016841F480710160134600224FF0DB
:1013E00001112046009600F04DF808BB2069B0F5C9
:1013F000804F0ED00620216800EAD51040F0F000A2
:10140000086133463A460B49204600F06FF878B938
:1014100002E005F0FE0000E0E8B22168086105493D
:1014200033463A46891F204600F060F8002800D075
:101430000120F8BD0800010070B516460D460446AF
:101440000DE02046FFF732FF08B1012070BD681C97
:1014500005D0FFF729F8801BA84207D835B12068CE
:101460004069C0434007ECD4002070BD002044F820
:10147000300F20216173A073216941F020012161A7
:101480002073E2E72DE9F0471E4690460D460446DC
:10149000C1F30747DDF8209008E0701C06D0FFF785
:1014A00003F8A0EB0900B0420FD876B12068012FF5
:1014B00018D0806925EA00000004000C14D0002137
:1014C0004145EAD00020BDE8F087002044F8300F05
:1014D00020216173A073216941F0200121612073F3
:1014E0000120F0E74069E5E70121E9E72DE9F04750
:1014F0009A4691460E46044600254FF02008C1F357
:10150000074725E020684069C043400514D420689F
:10151000016841F40071016021686FF480604861E6
:10152000256384F83D8084F83E50206C40F0040030
:10153000206484F83C501FE0B9F1FF3F08D0FEF76B
:10154000B3FFA0EB0A0149450CD8B9F1000F09D04F
:101550002068012F13D0806926EA00000004000CE7
:101560000BD0CFE744F8305F84F80D80A573206975
:1015700040F02000206125730120BDE8F08740691C
:10158000EAE72DE9F041002590460E460446202763
:1015900017E04069C043C0060CD454F8301B6FF00C
:1015A0001000486144F810596777A577206A2062D7
:1015B000257717E0FEF778FFA0EB0800B04208D8C7
:1015C0003EB120684169C9434906E2D40020BDE824
:1015D000F08144F8305F6773A573206940F0200004
:1015E000206125730120F2E770B516460D460446CA
:1015F0000DE02046FFF75AFE08B1012070BD681CBF
:1016000005D0FEF751FF801BA84207D835B12068EE
:101610004069C0430006ECD4002070BD002044F8AF
:10162000300F20216173A073216941F020012161F5
:101630002073E2E70D4808B5016841F080010160C0
:10164000016801F080010091016841F00101016031
:10165000016801F001010091016841F0020101609F
:10166000006800F00200009008BD00003038024021
:101670000D4810B50B4901600C49416000214FF441
:1016800080428160C0E9031241618161C1610162F0
:10169000FEF710FF002803D0BDE81040FEF718BE8B
:1016A00010BD0000005400402C000020A086010066
:1016B0000C4810B50A4901604FF4165141600021F1
:1016C00081600C22C160C0E904128161C161FFF731
:1016D00027FD002803D0BDE81040FEF7F9BD10BD7E
:1016E0000010014080000020FEE7704770472DE9A0
:1016F000FF4706467520DDF830908DF8080042F06F
:10170000D00598460F460D70052302222946304623
:10171000FEF78AFF40BB4FF47A74012302AA2946E0
:1017200030460094FFF71CF9F0B9012303AA2946BB
:1017300030460094FFF724F8B0B903E0032004B06A
:10174000BDE8F0879DF80C006828F7D16B208DF874
:10175000040000208DF80500022301AA2946304626
:101760000094FFF7FDF808B10120E8E707223946A9
:10177000304600F0E9F842463946304600F094F829
:101780004A463946304600F0F3F80020D7E72DE905
:10179000FF410C463B218DF80C10277806464FF48C
:1017A0007A75012303AA394630460095FFF7D8F829
:1017B0000028F6D1062301AA394630460095FEF7E7
:1017C000DFFF0028F6D1BDF8040040BAA081BDF8C3
:1017D000060040BAE081BDF8080040BA208204B09B
:1017E0000020BDE8F0812DE9FF410C4643218DF832
:1017F0000C10277806464FF47A75012303AA394660
:1018000030460095FFF7ACF80028F6D1062301AA70
:10181000394630460095FEF7B3FF0028F6D1BDF8F3
:10182000040040BA6082BDF8060040BAA082BDF84C
:10183000080040BAE08204B00020BDE8F08100005A
:10184000FEB50D4641218DF808102F7806464FF45D
:101850007A74012302AA394630460094FFF780F8D3
:101860000028F6D1022301AA394630460094FEF73B
:1018700087FF0028F6D1BDF80400DFED090A40BA61
:1018800000B200EE100A0020B8EEC00A80EE201A66
:101890009FED040A31EE000A85ED060AFEBD000048
:1018A0000000AA43B81E12422DE9FE43074691F8F4
:1018B00000801C2016460D468DF808004FF47A74FF
:1018C000012302AA414638460094FFF749F8002850
:1018D000F6D1012301AA414638460094FEF750FF95
:1018E0000028F6D19DF8040000F0E70040EAC600A9
:1018F0008DF80400012301AA414638460094FFF701
:101900002FF80028F6D136B1012E07D0022E0CD0C8
:10191000032E07D10CE09FED080A01E09FED070AB6
:1019200085ED020A0020BDE8FE839FED050AF7E77A
:101930009FED040AF4E70000000080380000003941
:10194000000080390000003A7CB504460D7819206B
:101950008DF804008DF805204FF47A76022301AA51
:10196000294620460096FEF7FBFF0028F6D17CBDF5
:101970002DE9FE43074691F800801B2016460D46D0
:101980008DF808004FF47A74012302AA41463846C4
:101990000094FEF7E5FF0028F6D1012301AA414695
:1019A00038460094FEF7ECFE0028F6D19DF80400BE
:1019B00000F0E70040EAC6008DF80400012301AA08
:1019C000414638460094FEF7CBFF0028F6D136B1E9
:1019D000012E07D0022E0CD0032E07D10CE09FED74
:1019E000080A01E09FED070A85ED010A0020BDE825
:1019F000FE839FED050AF7E79FED040AF4E7000078
:101A00002D23FA3B2D237A3C90C1F93C90C1793DBE
:101A10007047FFF76FB8000030B593B030216846CB
:101A2000FEF718FC14210CA8FEF714FC184800253A
:101A3000016841F080510160006800F08050119011
:101A40001448016841F4804101600068022400F4F8
:101A5000804011900120039010200490009406947F
:101A60000820CDE907505420CDE9090404200B904B
:101A70006846FFF7B3F90CA90F2081E83100E002B6
:101A8000CDE90F0502210CA8FFF7C0F813B030BD57
:101A900040380240007000401048016841F4700175
:101AA00001600F48016841F0010101600C4A00210A
:101AB0000832116002680B4B1A400260031D0A4A8B
:101AC0001A60026822F48022026005480C3001602E
:101AD00002495806803908607047000088ED00E030
:101AE00000380240FFFFF6FE103000242DE9F041DF
:101AF000044600680169E26821F440511143016124
:101B00002169A068E26908436169114322680843BA
:101B1000D16849F20C6399430143D160206841695F
:101B2000A26921F4407111434161E2696425B2F573
:101B3000004F9748974922684FF032083FD08A42B9
:101B400001D082427CD1FFF709F900EBC00101EB23
:101B5000001061688900B0FBF1F6FFF7FFF800EBB9
:101B6000C00101EB001061688900B0FBF1F0B0FB2F
:101B7000F5F06FF01801484306EB800108EB011007
:101B8000B0FBF5F000F0F006FFF7E8F800EBC0015D
:101B900001EB001061688900B0FBF1F0B0FBF5F0DB
:101BA00006EB0016FFF7DAF800EBC00101EB0010BE
:101BB00061688900B0FBF1F7FFF7D0F8D2E08A4204
:101BC00001D082423DD1FFF7C9F800EBC00101EB23
:101BD000001061684900B0FBF1F0B0FBF5F00601C0
:101BE000FFF7BCF800EBC00101EB00106168490091
:101BF000B0FBF1F7FFF7B2F800EBC00101EB00100A
:101C000061684900B0FBF1F0B0FBF5F06FF018012E
:101C1000484307EB800108EBC100B0FBF5F000F092
:101C2000F80006EB4006FFF799F800EBC00101EB66
:101C3000001061684900B0FBF1F7FFF78FF83CE056
:101C400055E0FFF77BF800EBC00101EB0010616885
:101C50004900B0FBF1F0B0FBF5F00601FFF76EF8BC
:101C600000EBC00101EB001061684900B0FBF1F727
:101C7000FFF764F800EBC00101EB00106168490058
:101C8000B0FBF1F0B0FBF5F06FF01801484307EB43
:101C9000800108EBC100B0FBF5F000F0F80006EBA6
:101CA0004006FFF74BF800EBC00101EB0010616844
:101CB0004900B0FBF1F7FFF741F800EBC00101EB81
:101CC000001061684900B0FBF1F0B0FBF5F06FF077
:101CD0001801484307EB800108EBC100B0FBF5F0A9
:101CE00000F00700216830448860BDE8F081FFF70C
:101CF00025F800EBC00101EB001061688900B0FB22
:101D0000F1F6FFF71BF800EBC00101EB0010616872
:101D10008900B0FBF1F0B0FBF5F06FF0180148431B
:101D200006EB800108EB0110B0FBF5F000F0F006C7
:101D3000FFF704F800EBC00101EB001061688900B7
:101D4000B0FBF1F0B0FBF5F006EB0016FEF7F6FF86
:101D500000EBC00101EB001061688900B0FBF1F7F6
:101D6000FEF7ECFF00EBC00101EB00106168890099
:101D7000B0FBF1F0B0FBF5F06FF01801484307EB52
:101D8000800108EB0110B0FBF5F000F00F00A9E7AF
:101D900000140140001001402DE9F041984617461B
:101DA0000E460446069D1DE0681C1BD02DB1FEF7B3
:101DB0007BFBA0EB0800A84214D92068C16821F47D
:101DC000D071C1602068416921F00101416120208A
:101DD00084F8390084F83A00002084F838000320A1
:101DE000BDE8F0812068006836EA000004D00020D9
:101DF000B842D9D00020F3E70120F9E7FEE7090750
:101E0000090E002804DB00F1E02080F80014704780
:101E100000F00F0000F1E02080F8141D704702E090
:101E200008C8121F08C1002AFAD170477047002065
:101E300001E001C1121F002AFBD1704788B01422B3
:101E400022A101A8FEF7EDF9FEF75CFEFFF7E4FD25
:101E5000FFF7F0FBFFF72CFCFFF70AFC4FF6FF74CF
:101E60002346112201A91E48FFF7C2F900250023CD
:101E70001A461C491C480095FFF739FC0028FDD183
:101E80002346112201A91648FFF7B2F94FF47A70E0
:101E9000FEF720FA13491448FFF7D2FC114E1248FE
:101EA0003146FFF7A0FC31460F48FFF770FCB089C0
:101EB000ADF818002346022206A90948FFF798F951
:101EC0004FF4FA70FEF706FAD1E700006D70753630
:101ED00030353020696E69746564210A00000000A5
:101EE00080000020100000202C00002000000000D6
:101EF00000000000010203040607080900000000BA
:101F000001020304241F000800000020100000004C
:101F10001E1E0008341F000810000020B00400003E
:101F20002E1E00080100000010000000000000004C
:041F30000024F40095
:040000050800018965
:00000001FF
